:020000040800F2
:10000000085100209D030008F17B0008517400088E
:10001000E97B0008C1050008D9A80008000000001D
:10002000000000000000000000000000417F000808
:10003000710A000800000000097C0008497F0008E0
:10004000B7030008B7030008B7030008B7030008A8
:10005000B7030008B7030008B7030008B703000898
:10006000B7030008B7030008B7030008310600080B
:100070004106000851060008B7030008B70300084E
:10008000B7030008B7030008B7030008990A00087F
:10009000B90A0008A90A0008C90A0008B70300083D
:1000A000B7030008B7030008B7030008B703000848
:1000B000B7030008B7030008B1800008B7030008C1
:1000C000B7030008B7030008B7030008B703000828
:1000D000517E0008C18B0008B7030008B703000871
:1000E000790A0008B703000800000000B703000801
:1000F000B7030008B7030008B7030008B7030008F8
:10010000B7030008B7030008C1800008B703000860
:10011000B7030008B7030008B7030008B7030008D7
:10012000B7030008B7030008B7030008B7030008C7
:10013000B7030008B7030008B7030008B7030008B7
:1001400000000000000000000000000000000000AF
:10015000B7030008B7030008B7030008B703000897
:10016000B7030008B7030008B7030008B703000887
:10017000B7030008F97B0008B7030008000000007F
:10018000B7030008B703000839820008B703000866
:10019000B7030008B7030008B7030008B703000857
:1001A000B7030008B7030008B70300080000000009
:1001B000B7030008B7030008B7030008B703000837
:1001C000B7030008B70300080000000000000000AB
:1001D0000000000000000000B7030008000000005D
:1001E000000000000000000000000000000000000F
:1001F0000000000000000000B7030008B70300087B
:10020000B7030008B703000800000000B7030008A8
:10021000B7030008B7030008B7030008B7030008D6
:10022000B703000800000000B7030008000000004A
:10023000B7030008B703000800000000B703000878
:10024000B7030008B7030008B7030008B7030008A6
:10025000B7030008B7030008B7030008B703000896
:10026000B7030008B7030008B7030008B703000886
:10027000B7030008B7030008B70300080000000038
:10028000B7030008B7030008B7030008B703000866
:1002900000000000B7030008B703000800000000DA
:1002A00000000000B7030008B7030008B703000808
:1002B000B18B0008B7030008B7030008D90A00088B
:1002C000E90A0008B7030008B703000800F002F8C5
:1002D00000F054F814A696E8000CB244B344DA4592
:1002E00001D100F04BF8BAE80F000FA696E83000F5
:1002F000A5EB040504EB0607AAEB0704A7F1010729
:100300004FEA15154FEA3414A4F10104AC4201D3AD
:1003100000F034F813F0010F18BFFB1A43F001038B
:1003200000F001F8DBE7184744AC000084AC0000A3
:10033000103A24BF78C878C1FAD8520724BF30C811
:1003400030C144BF04680C60704700007047000073
:100350000023002400250026103A28BF78C1FBD8CE
:10036000520728BF30C148BF0B6070471FB50AF065
:10037000A8FD00F0D5F81FBD10B510BD00F0EBF8DA
:100380001146FFF7F3FF0AF063FD00F009F903B42B
:10039000FFF7F2FF03BC00F00DF9000009488047A9
:1003A00009480047FEE7FEE7FEE7FEE7FEE7FEE757
:1003B000FEE7FEE7FEE7FEE704480549054A064B6F
:1003C0007047000001800008CD02000810310024B1
:1003D00008510020105100240811002053EA020C9B
:1003E00000F069802DE9F04B4FF00006002B1FBF95
:1003F000B3FA83F503FA05F424FA05F65E4012BF5A
:100400001643B2FA82F502FA05F4C5F120051EBFC3
:1004100022FA05FC44EA0C04203556EA044C4FEA63
:10042000144418BF641C4FF000084FF000099042BC
:1004300071EB030C39D3002919BFB1FA81F701FA26
:1004400007F6B0FA80F700FA07F6C7F120071EBFDB
:1004500020FA07FC46EA0C062037B6FBF4FCA7EBB3
:100460000507103F07F01F0BCBF120062CFA06F60C
:100470000CFA0BFB44BFB3460026202FA4BF5E46F8
:100480004FF0000B5BEA060C08BF4FF0010B19EBB5
:100490000B0948EB0608ABFB027C06FB02CC0BFB0E
:1004A00003CCC01B71EB0C01C1E70B460246414671
:1004B0004846BDE8F08B13B5084318BF4FF0FF3036
:1004C0000146AFF30080BDE81C4070474FF00002CA
:1004D00000B5134694469646203922BFA0E80C503A
:1004E000A0E80C50B1F12001BFF4F7AF090728BF15
:1004F000A0E80C5048BF0CC05DF804EB890028BF91
:1005000040F8042B08BF704748BF20F8022B11F0B9
:10051000804F18BF00F8012B704770477047704735
:1005200008487CB57844009007487844009C05460C
:10053000019004E02046016808448047241DAC4235
:10054000F8D17CBD84AA000086AA0000004870474C
:100550008000002070477546FFF7F8FFAE460500A3
:100560006946534620F00700854618B020B5FFF7CE
:1005700023FFBDE820404FF000064FF000074FF08A
:1005800000084FF0000BAC46ACE8C009ACE8C0096D
:10059000ACE8C009ACE8C00921F007018D467047FE
:1005A00010B50446AFF300802046BDE81040FFF7C9
:1005B000EEBE000001491820ABBEFEE72600020097
:1005C000FEE700000000000000207047000000006F
:1005D000002070470000000010B540F24C5441F27A
:1005E0003401C2F20004C2F200410022204608F0A9
:1005F000BFFC40F634012046C2F2004108F0A8FCDE
:10060000002010BD0000000010B540F24C5401461F
:10061000C2F20004204608F09BFC204608F074FC5F
:10062000002010BD00000000002070470000000006
:1006300042F6B850C2F2004000F026BE00000000B2
:1006400040F62800C2F2000000F01EBE00000000CC
:1006500042F63060C2F2004000F016BE000000001A
:1006600040F20F42D0F800C0C4F20202944510DC00
:100670006F22C4F20202944520DC3F22C4F202023F
:10068000944536DC1022C4F20202944554D028224C
:100690004EE040F26F42C4F2020294451ADC40F28E
:1006A0003F42C4F2020294452ADC40F21042C4F2F6
:1006B0000202944540D040F2284239E09F22C4F221
:1006C0000202944525DC7022C4F20202944533D024
:1006D00088222DE040F29F42C4F2020294451FDCC2
:1006E00040F27042C4F20202944525D040F28842A2
:1006F0001EE04022C4F2020294451DD0582217E0A9
:1007000040F24042C4F20202944515D040F25842F1
:100710000EE0A022C4F2020294450DD0B82207E0F8
:1007200040F2B842C4F20202944505D040F2A04221
:10073000C4F20202944517D10CF0F8024AF6AB233A
:10074000103ACAF6AA23A2FB033109A35F2AC1F318
:1007500002115B5C40F2FF312CEA0101C36588BFE6
:1007600004318165084670472CF0FF01F9E700BFAE
:10077000000610160006101670B540F26F44D0F84F
:1007800000C0C4F20204D0F858E0A44519DC9F254B
:10079000C4F20205AC4531DC5725C4F20205AC4574
:1007A00056DC1025C4F20205AC4500F092802825E5
:1007B000C4F20205AC4500F08C804025C4F202056D
:1007C00084E045F22F45C5F60205AC452BDC40F22E
:1007D000B745C4F20205AC4548DC40F27045C4F2AE
:1007E0000205AC4575D040F28845C4F20205AC451F
:1007F0006FD040F2A045C4F2020567E040F2274501
:10080000C4F20205AC4540DCA025C4F20205AC45AB
:100810005FD0B825C4F20205AC455AD040F210456D
:10082000C4F2020552E045F26B45C5F60205AC453F
:100830003CDC45F23045C5F60205AC4549D045F2F1
:100840004445C5F60205AC4543D045F258453BE06A
:100850005825C4F20205AC453BD07025C4F2020510
:10086000AC4536D08825C4F202052FE040F2B845E9
:10087000C4F20205AC452CD045F20845C5F6020588
:10088000AC4526D045F21C451EE040F22845C4F296
:100890000205AC451DD040F24045C4F20205AC450E
:1008A00017D040F25845C4F202050FE045F26C45FE
:1008B000C5F60205AC450CD045F29445C5F60205D7
:1008C000AC4506D045F28045C5F60205AC4540F082
:1008D000CC80456EC66E002E866E6E601CBFD0E961
:1008E0001C566E60A44515DC9F24C4F20204A44586
:1008F0002BDC5724C4F20204A4454EDC1024C4F2BD
:100900000204A44576D02824C4F20204A44571D080
:1009100040246BE045F22F44C5F60204A44527DCD1
:1009200040F2B744C4F20204A44542DC40F27044F1
:10093000C4F20204A4455DD040F28844C4F202042B
:10094000A44557D040F2A04450E040F22744C4F2FE
:100950000204A4453CDCA024C4F20204A44549D00E
:10096000B824C4F20204A44544D040F210443DE04F
:1009700045F26B44C5F60204A44553DC45F230440D
:10098000C5F60204A4455FD045F24444C5F602040E
:10099000A44559D045F2584452E05824C4F2020408
:1009A000A44527D07024C4F20204A44522D0882490
:1009B0001CE040F2B844C4F20204A4451AD045F247
:1009C0000844C5F60204A4453ED045F21C4437E075
:1009D00040F22844C4F20204A4450BD040F2404443
:1009E000C4F20204A44505D040F25844C4F2020403
:1009F000A4453AD18468C06D00F01F003F2505FA78
:100A000000F0CEF80800DCF80000402C20F4802034
:100A1000CCF80000CCF8043023D1CCF80820CCF876
:100A20000C1070BD45F26C44C5F60204A4450BD011
:100A300045F28044C5F60204A44505D045F294442D
:100A4000C5F60204A44510D1C46D012504F01F04AD
:100A5000806805FA04F4CEF804404028CCF804304D
:100A6000DBD0CCF80810CCF80C2070BD00000000E2
:100A7000704700000000000080B54FF4806002F075
:100A8000D7FA4FF48050BDE8804002F0D1BA0000A0
:100A900072B600BFFEE7000040F6A000C2F2000000
:100AA00001F03ABE0000000040F6A000C2F20000D3
:100AB00001F032BE0000000040F64010C2F200001B
:100AC00001F02ABE0000000040F64010C2F2000013
:100AD00001F022BE0000000042F6A860C2F2004011
:100AE00001F01ABE0000000042F6A860C2F2004009
:100AF00001F012BE000000002DE9F041044602F0B2
:100B000083FB14B3054694F83500022820D140F247
:100B10000F462768C4F2020640F26F48B7426FF0F2
:100B20000E00C4F2020817DC6F21C4F202018F42EA
:100B300023DC3F21C4F202018F4239DC1021C4F2D0
:100B400002018F4258D0282151E00120BDE8F081F8
:100B500080206065012040E247451ADC40F23F41B9
:100B6000C4F202018F422ADC40F21041C4F20201B9
:100B70008F4241D040F2284139E09F21C4F2020166
:100B80008F4225DC7021C4F202018F4234D08821CB
:100B90002DE040F29F41C4F202018F421FDC40F27F
:100BA0007041C4F202018F4226D040F288411EE01B
:100BB0004021C4F202018F421ED0582117E040F2BA
:100BC0004041C4F202018F4216D040F258410EE07B
:100BD000A021C4F202018F420ED0B82107E040F2FA
:100BE000B841C4F202018F4206D040F2A041C4F2E3
:100BF00002018F42394607D13946386820F01E007D
:100C000041F8140B6FF080000A68474500EA0200C3
:100C1000086019DC9F20C4F20200874231DC5720B3
:100C2000C4F20200874256DC1020C4F20200874260
:100C300000F091802820C4F20200874200F08B80EF
:100C40004020C4F2020084E045F22F40C5F60200C5
:100C500087422BDC40F2B740C4F20200874248DCF6
:100C600040F27040C4F20200874274D040F28840E3
:100C7000C4F2020087426ED040F2A040C4F20200EB
:100C800067E040F22740C4F20200874240DCA02027
:100C9000C4F2020087425ED0B820C4F2020087424C
:100CA00059D040F21040C4F2020052E045F26B40CD
:100CB000C5F6020087423CDC45F23040C5F6020032
:100CC000874248D045F24440C5F60200874242D0F0
:100CD00045F258403BE05820C4F2020087423AD027
:100CE0007020C4F20200874235D08820C4F202008E
:100CF0002FE040F2B840C4F2020087422BD045F208
:100D00000840C5F60200874225D045F21C401EE08F
:100D100040F22840C4F2020087421CD040F240401A
:100D2000C4F20200874216D040F25840C4F20200DA
:100D30000FE045F26C40C5F6020087420BD045F249
:100D40009440C5F60200874205D045F28040C5F6C2
:100D50000200874204D1206E016821F48071016095
:100D6000386820F0010038603868C0070BD002F006
:100D70004BFA401B0628F7D320206065032084F837
:100D80003500012029E12068B04210DC6F21C4F257
:100D9000020188421CDC3F21C4F20201884232DC9D
:100DA0001021C4F20201884250D028214AE0404577
:100DB0001ADC40F23F41C4F2020188422ADC40F2D0
:100DC0001041C4F20201884240D040F2284139E08B
:100DD0009F21C4F20201884225DC7021C4F2020185
:100DE000884233D088212DE040F29F41C4F20201B5
:100DF00088421FDC40F27041C4F20201884225D0D3
:100E000040F288411EE04021C4F2020188421DD018
:100E1000582117E040F24041C4F20201884215D047
:100E200040F258410EE0A021C4F2020188420DD0E8
:100E3000B82107E040F2B841C4F20201884205D06F
:100E400040F2A041C4F20201884259D1D4E91612FD
:100E500002F01F023F2303FA02F28A60404559DC88
:100E60009F21C4F20201884214DC5721C4F202011E
:100E7000884226DC1021C4F20201884200F09D80E5
:100E80002821C4F20201884200F097804021C4F278
:100E9000020190E040F22741C4F2020188421EDCC8
:100EA000A021C4F20201884200F08780B821C4F278
:100EB0000201884200F0818040F21041C4F2020138
:100EC00079E05821C4F20201884276D07021C4F240
:100ED0000201884271D08821C4F202016BE040F225
:100EE0002841C4F20201884267D040F24041C4F276
:100EF0000201884261D040F25841C4F202015AE036
:100F0000D4E9161202F01F02012303FA02F24A602A
:100F10004045A5DD45F22F41C5F60201884216DCA9
:100F200040F2B741C4F20201884225DC40F2704130
:100F3000C4F20201884240D040F28841C4F202016A
:100F400088423AD040F2A041C4F2020133E045F2B7
:100F50006B41C5F6020188421DDC45F23041C5F601
:100F60000201884229D045F24441C5F60201884277
:100F700023D045F258411CE040F2B841C4F20201CE
:100F800088421AD045F20841C5F60201884214D0C1
:100F900045F21C410DE045F26C41C5F60201884264
:100FA0000BD045F29441C5F60201884205D045F2C6
:100FB0008041C5F6020188420BD1616EA26EE06EDF
:100FC0004A6030B1016821F480710160D4E91C01EC
:100FD0004160012084F835000020002184F834109D
:100FE000BDE8F08100000000F0B190F83510022952
:100FF00018D180B540F20F420168C4F2020291425A
:1010000014DC6F23C4F20203994224DC3F23C4F2B0
:10101000020399423ADC1023C4F20203994258D0E9
:10102000282352E0802141650120704740F26F4340
:10103000C4F2020399421ADC40F23F43C4F20203B5
:1010400099422ADC40F21043C4F20203994240D094
:1010500040F2284339E09F23C4F20203994225DC81
:101060007023C4F20203994233D088232DE040F26A
:101070009F43C4F2020399421FDC40F27043C4F262
:101080000203994225D040F288431EE04023C4F277
:10109000020399421DD0582317E040F24043C4F2A6
:1010A0000203994215D040F258430EE0A023C4F247
:1010B000020399420DD0B82307E040F2B843C4F2CE
:1010C0000203994205D040F2A043C4F202039942C0
:1010D00071D191424FF0040280F8352010DC6F206E
:1010E000C4F20200814220DC3F20C4F202008142AF
:1010F00036DC1020C4F20200814253D028204EE09A
:1011000040F26F40C4F2020081421ADC40F23F40DC
:10111000C4F2020081422ADC40F21040C4F2020014
:1011200081423FD040F2284039E09F20C4F20200C3
:10113000814225DC7020C4F20200814232D0882036
:101140002DE040F29F40C4F2020081421FDC40F2D9
:101150007040C4F20200814224D040F288401EE078
:101160004020C4F2020081421CD0582017E040F217
:101170004040C4F20200814214D040F258400EE0D8
:10118000A020C4F2020081420CD0B82007E040F257
:10119000B840C4F20200814204D040F2A040C4F240
:1011A00002008142086820F0010008600021BDE8CB
:1011B0008040084670470A6822F00E020A6045F235
:1011C0005742C5F6020291420A6822F001020A6003
:1011D0000EDC45F22F42C5F60202914217DC45F2C1
:1011E0000842C5F60202914226D045F21C421FE099
:1011F00045F27F42C5F60202914211DC45F25842A7
:10120000C5F60202914217D045F26C4210E045F259
:101210003042C5F6020291420ED045F2444207E048
:1012200045F29442C5F60202914205D045F2804251
:10123000C5F6020291421AD1D0E9181CD0E916E392
:101240000A6822F480720A6003F01F01012202FA88
:1012500001F1CEF80410816ECCF80410C16E31B1EA
:101260000A6822F480720A60D0E91C124A600121E7
:1012700080F83510026D0021002A80F8341096D0D5
:10128000904793E7000000002DE9F04381B0002172
:10129000009140F220010446C2F2004148F2B5122A
:1012A000C1F64E32A56D096840F26F490068C4F27C
:1012B0000209A1FB021848452E682A6815DC9F2107
:1012C000C4F2020188422BDC5721C4F20201884299
:1012D0004FDC1021C4F20201884278D02821C4F2E8
:1012E0000201884273D040216CE045F22F41C5F6DF
:1012F0000201884227DC40F2B741C4F20201884271
:1013000043DC40F27041C4F2020188425FD040F2F7
:101310008841C4F20201884259D040F2A04151E014
:1013200040F22741C4F2020188423DDCA021C4F210
:10133000020188424BD0B821C4F20201884246D053
:1013400040F210413EE045F26B41C5F60201884291
:1013500075DC45F23041C5F60201884200F082801A
:1013600045F24441C5F6020188427BD045F258411E
:1013700073E05821C4F20201884228D07021C4F2DF
:101380000201884223D088211CE040F2B841C4F217
:10139000020188421BD045F20841C5F6020188428D
:1013A00060D045F21C4158E040F22841C4F20201ED
:1013B00088420CD040F24041C4F20201884206D07B
:1013C00040F25841C4F20201884240F04E84E16D7F
:1013D000082201F01F018A40324200F0168140F2DB
:1013E0000F43C4F2020398424FF0040313DC6F274B
:1013F000C4F20207B84200F391803F27C4F202070B
:10140000B84200F3D2801027C4F20207B84200F0BD
:10141000F0802827E8E0484500F38C8040F23F4701
:10142000C4F20207B84200F3C78040F21047C4F28A
:101430000207B84200F0DD8040F22847D4E045F2D0
:101440006C41C5F6020188420CD045F28041C5F6D8
:101450000201884206D045F29441C5F60201884255
:1014600040F003840368E16D01F01F01042707FACF
:1014700001F6164218BF13F004072CD1022707FA11
:1014800001F6164218BF13F0020762D1CA401207D4
:1014900040F1EB8313F0080200F0E78340F20F42C3
:1014A000C4F2020290426FF01C0200F305836F2326
:1014B000C4F20203984200F324833F23C4F20203E0
:1014C000984200F369831023C4F20203984200F0AB
:1014D000BB832823B2E319046E605ED4990600F141
:1014E000D88340F20F41C4F2020188426FF0080134
:1014F00000F3F5826F22C4F20202904200F30E83E1
:101500003F22C4F20202904200F34D831022C4F243
:101510000202904200F0BA832822B1E39F27C4F26E
:101520000207B84251DC7027C4F20207B84260D00B
:10153000882759E040F29F47C4F20207B8424BDCCB
:1015400040F27047C4F20207B84252D040F28847D6
:101550004AE019046E6000F19B82990600F1CA838B
:1015600040F20F41C4F2020188426FF0140100F30F
:10157000E2826F22C4F20202904200F31B833F22F8
:10158000C4F20202904200F387831022C4F20202E6
:10159000904200F0A68328229DE3D80300F17983CE
:1015A000A16C002940F0A9835FE34027C4F2020741
:1015B000B8421ED0582717E040F24047C4F2020755
:1015C000B84216D040F258470EE0A027C4F20207F6
:1015D000B8420ED0B82707E040F2A047C4F2020795
:1015E000B84206D040F2B847C4F20207B84218BF6A
:1015F000082307681F4208D0036823F00403036030
:10160000AA60626D42F00102626501228A403242A4
:101610006FD040F20F43C4F20203984210DC6F23F4
:10162000C4F2020398421CDC3F23C4F20203984236
:1016300032DC1023C4F20203984251D028234AE03E
:1016400048451ADC40F23F43C4F2020398422ADCC8
:1016500040F21043C4F20203984241D040F22843C2
:1016600039E09F23C4F20203984225DC7023C4F2C0
:101670000203984234D088232DE040F29F43C4F205
:10168000020398421FDC40F27043C4F20203984206
:1016900026D040F288431EE04023C4F20203984261
:1016A0001ED0582317E040F24043C4F20203984290
:1016B00016D040F258430EE0A023C4F20203984231
:1016C0000ED0B82307E040F2B843C4F202039842B8
:1016D00006D040F2A043C4F20203984240F0E081F9
:1016E000436903F0800323B1AA60626D42F00202F5
:1016F000626504228A4032426FD040F20F43C4F246
:101700000203984210DC6F23C4F2020398421CDCEF
:101710003F23C4F20203984232DC1023C4F20203D6
:10172000984251D028234AE048451ADC40F23F4312
:10173000C4F2020398422ADC40F21043C4F20203CE
:10174000984241D040F2284339E09F23C4F202037B
:10175000984225DC7023C4F20203984234D08823D7
:101760002DE040F29F43C4F2020398421FDC40F296
:101770007043C4F20203984226D040F288431EE030
:101780004023C4F2020398421ED0582317E040F2CF
:101790004043C4F20203984216D040F258430EE090
:1017A000A023C4F2020398420ED0B82307E040F20F
:1017B000B843C4F20203984206D040F2A043C4F2F8
:1017C0000203984240F07281036803F0020323B1E0
:1017D000AA60626D42F004026265102202FA01F111
:1017E00031427DD040F20F42C4F2020290424FF0EB
:1017F000080210DC6F23C4F2020398421CDC3F2372
:10180000C4F20203984232DC1023C4F2020398426D
:1018100051D028234AE048451ADC40F23F43C4F245
:10182000020398422ADC40F21043C4F202039842B9
:1018300041D040F2284339E09F23C4F2020398428A
:1018400025DC7023C4F20203984234D088232DE0B3
:1018500040F29F43C4F2020398421FDC40F27043FF
:10186000C4F20203984226D040F288431EE040238F
:10187000C4F2020398421ED0582317E040F24043BE
:10188000C4F20203984216D040F258430EE0A0235F
:10189000C4F2020398420ED0B82307E040F2A043FE
:1018A000C4F20203984206D040F2B843C4F20203E5
:1018B000984218BF04220368134211D0A96001683E
:1018C0004903016806D4C90506D4016821F008015E
:1018D000016001E0080352D4216C09B12046884719
:1018E000E06D00F01F01202000FA01F2324200F00A
:1018F000A68040F20F432068C4F2020398424FF0E2
:10190000100310DC6F27C4F20207B8421CDC3F272B
:10191000C4F20207B84236DC1027C4F20207B8420C
:1019200055D028274EE048451ADC40F23F47C4F224
:101930000207B8422EDC40F21047C4F20207B84258
:1019400045D040F228473DE09F27C4F20207B84245
:1019500029DC7027C4F20207B84238D0882731E06A
:1019600040F29F47C4F20207B84223DC40F27047BE
:10197000C4F20207B8422AD040F2884722E0A16CA4
:101980000029ABD1ACE74027C4F20207B8421ED011
:10199000582717E040F24047C4F20207B84216D079
:1019A00040F258470EE0A027C4F20207B8420ED01A
:1019B000B82707E040F2A047C4F20207B84206D0B9
:1019C00040F2B847C4F20207B84218BF02230768C2
:1019D0001F4234D0AA6094F83520042A026816D138
:1019E00022F016020260426922F080024261226CFB
:1019F0000AB9A26C1AB1026822F0080202603F2004
:101A00008840A860012084F83500216D27E151034A
:101A100001680CD4C9050ED4016821F010010160E1
:101A2000012084F83500002084F8340003E0080326
:101A300001D4616C00E0E16B09B120468847606D1C
:101A4000002800F01281606DC0071CD0042084F8CB
:101A5000350020684FEA9821026822F001020260F6
:101A6000009A013200928A4202D80268D207F7D166
:101A70000068C0074FF0030008BF012084F835005C
:101A8000002084F83400E16C002940F03681ECE05D
:101A9000D80300F12F81616C002940F02E81E4E031
:101AA00003680023002B7FF41FAE22E603680023A7
:101AB000002B7FF48DAE90E648454FDC40F23F436B
:101AC000C4F20203984200F3828040F21043C4F251
:101AD0000203984200F0B88040F22843AEE0484547
:101AE0004BDC40F23F42C4F20202904278DC40F20A
:101AF0001042C4F20202904200F0C88040F2284234
:101B0000BEE09F23C4F20203984272DC7023C4F249
:101B10000203984200F0988088238FE09F22C4F24D
:101B2000020290426CDC7022C4F20202904200F089
:101B3000AD808822A4E0484569DC40F23F42C4F20F
:101B40000202904200F3AF8040F21042C4F202025F
:101B5000904200F0C68040F22842BCE040F29F4331
:101B6000C4F20203984261DC40F27043C4F2020303
:101B7000984269D040F2884360E040F29F42C4F24C
:101B80000202904274DC40F27042C4F202029042BF
:101B90007CD040F2884273E04023C4F202039842B2
:101BA00052D058234AE04022C4F2020290426DD043
:101BB000582265E09F22C4F2020290427CDC70222F
:101BC000C4F20202904200F08C80882283E040F24E
:101BD0004043C4F20203984236D040F258432DE00D
:101BE00040F24042C4F2020290424FD040F25842CA
:101BF00046E0A023C4F20203984225D0B8231DE09A
:101C0000A022C4F20202904240D0B82238E040F252
:101C10009F42C4F20202904255DC40F27042C4F28C
:101C2000020290425DD040F2884254E040F2A0436C
:101C3000C4F20203984207D040F2B843C4F2020350
:101C4000984218BF6FF00E0203681A40026001202C
:101C500000FA01F16960606584F83500E16C0029E3
:101C60004FF0000084F8340047D101B0BDE8F083A4
:101C700040F2A042C4F20202904207D040F2B842C1
:101C8000C4F20202904218BF6FF0040102681140D2
:101C90000160216C89BBE8E74022C4F20202904255
:101CA0001FD0582217E040F24042C4F20202904294
:101CB00017D040F258420EE0A022C4F20202904235
:101CC0000FD0B82207E040F2A042C4F202029042D4
:101CD00007D040F2B842C4F20202904218BF6FF03F
:101CE0000A01026811400160012084F835000020DB
:101CF00084F83400E16B0029B7D0204601B0BDE87C
:101D0000F0430847000000002DE9F041044601F0CF
:101D10007BFAECB140F26F4805462068C4F2020835
:101D2000404518DC9F21C4F2020188422EDC572175
:101D3000C4F20201884254DC1021C4F2020188423C
:101D40007ED02821C4F20201884279D0402172E07D
:101D50000120BDE8F08145F22F41C5F6020188421D
:101D600027DC40F2B741C4F20201884245DC40F270
:101D70007041C4F20201884262D040F28841C4F24C
:101D8000020188425CD040F2A04154E040F2274179
:101D9000C4F20201884240DCA021C4F20201884260
:101DA0004ED0B821C4F20201884249D040F210411D
:101DB00041E045F26B41C5F60201884200F3B8806C
:101DC00045F23041C5F60201884200F0C38045F279
:101DD0004441C5F60201884200F0BC8045F25841FA
:101DE000B4E05821C4F20201884229D07021C4F223
:101DF0000201884224D088211DE040F2B841C4F29B
:101E0000020188421CD045F20841C5F60201884211
:101E100000F0A08045F21C4198E040F22841C4F255
:101E2000020188420CD040F24041C4F202018842D3
:101E300006D040F25841C4F20201884240F0DE80F0
:101E4000022184F83510002184F83410016821F053
:101E50000101016020680168C9070CD001F0D4F9C4
:101E6000401B0628F6D320206065032084F8350047
:101E70000120BDE8F08148F23F0204F10807016843
:101E8000CFF61062114066698CCF1143D4F818C0A8
:101E90001943E3693943276A0E43616A33430429CE
:101EA00043EA070343EA0C0303D1D4E90B76374333
:101EB0003B436568A5F12906292E00F2A180012780
:101EC000DFE806F01515151515159E9E9E9E9E9E23
:101ED0009E9E9E9E9E9E9E9E9E9E151515159E9E46
:101EE0009E9E15159E9E9E9E9E9E15151515002F55
:101EF00018BF43F4801304290360426922F00702EB
:101F000041EA020140F09080D4E90A53002B41EAF3
:101F1000050100F08980BCF5005F5FD0BCF1000FC7
:101F200068D1022D74D0012D5ED0002D70D072E0EA
:101F300045F26C41C5F6020188420BD045F2804162
:101F4000C5F60201884205D045F29441C5F602016A
:101F5000884253D104F1080E022184F83510002183
:101F600084F834100168A3699EE80450A2F180054A
:101F7000E769B5FA85F566696D09402A4FEA853546
:101F800043EA07026FF3101142EA060208BF102568
:101F900041EADC0142EA0E022943236A41EAD20106
:101FA0004AF6F832CAF2FD724CF6CD470244CCF63E
:101FB000CC4741EA1311A2FB072301606FF0030035
:101FC00000EA9300E0652046FEF74AFBE16D01223E
:101FD00001F01F0102FA01F1416030E0032D1AD82F
:101FE000DFE805F00A160A02A3F1C072B2FA82F223
:101FF000520911E0032D0AD201220DE0402033E7FF
:1020000025F00302743AB2FA82F257096FE702D15F
:10201000C3F3006200E0002232B14020606501207D
:1020200084F83500BDE8F08141612046FEF718FBD9
:10203000E16D3F2201F01F0102FA01F18160206889
:10204000404519DC9F21C4F20201884231DC57214E
:10205000C4F20201884256DC1021C4F20201884217
:1020600000F092802821C4F20201884200F08C80A6
:102070004021C4F2020184E045F22F41C5F602017D
:1020800088422BDC40F2B741C4F20201884248DCAE
:1020900040F27041C4F20201884275D040F288419A
:1020A000C4F2020188426FD040F2A041C4F20201A2
:1020B00067E040F22741C4F20201884240DCA021DF
:1020C000C4F2020188425FD0B821C4F20201884202
:1020D0005AD040F21041C4F2020152E045F26B4185
:1020E000C5F6020188423CDC45F23041C5F60201EA
:1020F000884249D045F24441C5F60201884243D0A6
:1021000045F258413BE05821C4F2020188423BD0DD
:102110007021C4F20201884236D08821C4F2020143
:102120002FE040F2B841C4F2020188422CD045F2BF
:102130000841C5F60201884226D045F21C411EE046
:1021400040F22841C4F2020188421DD040F24041D1
:10215000C4F20201884217D040F25841C4F2020191
:102160000FE045F26C41C5F6020188420CD045F201
:102170009441C5F60201884206D045F28041C5F679
:102180000201884240F0D08045F2574C45F6FC01F0
:10219000C5F6020CC5F6020160450EDC45F22F4380
:1021A000C5F60203984217DC45F20843C5F6020360
:1021B000984226D045F21C431FE045F27F43C5F606
:1021C0000203984211DC45F25843C5F602039842D7
:1021D00017D045F26C4310E045F23043C5F60203D8
:1021E00098420ED045F2444307E045F29443C5F6C9
:1021F0000203984205D045F28043C5F60203984297
:1022000050D100F0FC034CF6CD47083BCCF6CC4750
:10221000A3FB0737A1F1FC05A1F17C063B0905EB07
:1022200083022266A26803F01F030127802A6666E4
:1022300007FA03F2A26601D1002262606268A56E0D
:10224000D4E91876D3B2013A072A3B60756015D8F5
:102250005E1E072E62D8604501F1440213DC45F290
:102260002F47C5F60207B8423CDC45F20847C5F6E1
:102270000207B8424BD045F21C4744E0002060679B
:10228000C4E91B0050E045F27F47C5F60207B8429B
:1022900031DC45F25847C5F60207B84237D045F25F
:1022A0006C4730E000F0F8034AF6AB27103BCAF663
:1022B000AA27A3FB073740F20F43C4F20203082505
:1022C0003E09984203F1AA02334688BF05EB171373
:1022D00040F600059042C4F2020528BF334605F1DE
:1022E00080069CE745F23047C5F60207B8420ED09B
:1022F00045F2444707E045F28047C5F60207B84279
:1023000005D045F29447C5F60207B84213D101EB58
:102310008300E06601202267B040606704F16C0230
:10232000002307CA03604A6000206065012184F829
:102330003510BDE8F08140F60000C4F2020000F163
:10234000FC0100F5A072E2E738B1B0B5054690F89F
:102350003400012803D10220B0BD012070470120C4
:1023600085F8340095F83500012828D1022085F839
:102370003500002068652868046824F001040460C2
:102380002846FEF7F9F940F20F422868C4F202022B
:1023900040F26F419042C4F2020118DC6F23C4F294
:1023A0000203984224DC3F23C4F2020398423ADC41
:1023B0001023C4F20203984259D0282352E04FF46C
:1023C00000606865002085F834000120B0BD8842B7
:1023D0001ADC40F23F43C4F2020398422ADC40F286
:1023E0001043C4F20203984241D040F2284339E03E
:1023F0009F23C4F20203984225DC7023C4F2020337
:10240000984234D088232DE040F29F43C4F2020367
:1024100098421FDC40F27043C4F20203984226D077
:1024200040F288431EE04023C4F2020398421ED0CB
:10243000582317E040F24043C4F20203984216D0FA
:1024400040F258430EE0A023C4F2020398420ED09B
:10245000B82307E040F2B843C4F20203984206D022
:1024600040F2A043C4F20203984240F02381036883
:102470000B2464F3440303602B6C1BB10823046832
:1024800023430360884219DC9F23C4F2020398426D
:1024900031DC5723C4F20203984256DC1023C4F205
:1024A0000203984200F091802823C4F2020398426C
:1024B00000F08B804023C4F2020384E045F22F43F6
:1024C000C5F6020398422BDC40F2B743C4F2020384
:1024D000984248DC40F27043C4F20203984274D040
:1024E00040F28843C4F2020398426ED040F2A04307
:1024F000C4F2020367E040F22743C4F202039842A9
:1025000040DCA023C4F2020398425ED0B823C4F298
:102510000203984259D040F21043C4F2020352E041
:1025200045F26B43C5F6020398423CDC45F230436A
:10253000C5F60203984248D045F24443C5F602036B
:10254000984242D045F258433BE05823C4F202037C
:1025500098423AD07023C4F20203984235D08823BF
:10256000C4F202032FE040F2B843C4F202039842DF
:102570002BD045F20843C5F60203984225D045F218
:102580001C431EE040F22843C4F2020398421CD0D0
:1025900040F24043C4F20203984216D040F258433E
:1025A000C4F202030FE045F26C43C5F60203984201
:1025B0000BD045F29443C5F60203984205D045F28C
:1025C0008043C5F6020398426ED12B6E1C68E4036B
:1025D00003D51C6844F480741C60EB6E1BB11D684D
:1025E00045F480751D60904210DC6F21C4F2020139
:1025F00088421CDC3F21C4F20201884232DC1021F7
:10260000C4F2020188424FD028214AE088421ADCF5
:1026100040F23F41C4F2020188422ADC40F21041FC
:10262000C4F2020188423FD040F2284139E09F21A4
:10263000C4F20201884225DC7021C4F20201884202
:1026400032D088212DE040F29F41C4F2020188423D
:102650001FDC40F27041C4F20201884224D040F2F3
:1026600088411EE04021C4F2020188421CD058215A
:1026700017E040F24041C4F20201884214D040F217
:1026800058410EE0A021C4F2020188420CD0B821CA
:1026900007E040F2B841C4F20201884204D040F29F
:1026A000A041C4F202018842016841F001010160C9
:1026B0000020B0BD0368052464F3430303602B6C62
:1026C000002B3FF4DFAE0423D9E600000000000039
:1026D000B0B5044600F098FD40F27A010546C2F21A
:1026E0000041621C097818BF0C4400BF00F08CFD4B
:1026F000401BA042FAD3B0BD7047000000000000AC
:10270000704700000000000070470000000000005B
:1027100070470000000000002DE9F04F89B004462A
:102720004AF61000C4F2000001684AF61400C4F230
:1027300000000268206802EA0108056DD0F8549094
:10274000036D0293436D0193036D0493436D0393F3
:10275000036D0893436D0793036D0693436D0593D3
:10276000D0F854A0D0F850B05FEACA530ED51BF48D
:1027700080710BD04FF4807101654AF61001002082
:10278000C4F2000108602046FFF7C2FF05EA09060F
:102790004AF610095FEA4A50C4F200094FEA887706
:1027A00011D51BF480600ED02068D0F8DC10D0F872
:1027B000E42011404FF4806202650020C9F8000057
:1027C000204600F021FCDDE9011000EA010506F4D5
:1027D000704657B120680021016508F00300C9F870
:1027E000000020463946FFF787FFDDE9031000EAC5
:1027F000010705F00F0546B1206831460665002047
:10280000C9F80000204600F007FC07F0F00645B1CB
:102810002068294605650020C9F80000204600F020
:10282000D3FB46B12068314606650020C9F8000098
:10283000204600F0CDFB5FEA0A500CD51BF4006087
:1028400009D020684FF4006101650020C9F800003C
:10285000204600F0E5FB5FEA8A5011D51BF40070BA
:102860000ED02068D0F8D810D0F8E02011404FF4F6
:10287000007202650020C9F80000204600F0C8FB85
:102880005FEA0A300CD51BF4002009D020684FF411
:10289000002101650020C9F80000204600F090FBEF
:1028A0005FEACA300CD51BF4803009D020684FF4A1
:1028B000803101650020C9F80000204600F0A0FB2F
:1028C0005FEA4A30DDE9051000EA01050CD51BF48A
:1028D000802009D020684FF4802101650020C9F8CC
:1028E0000000204600F088FB5FEA8A30DDE907102F
:1028F00000EA010005F060710FD51BF400320CD026
:1029000022684FF4003313650022C9F80020D4F880
:102910009C2042F08002C4F89C2000F0715539B12F
:10292000206801650020C9F800002046FFF7ECFE92
:102930004DB1206805650020C9F80000D4F89C005E
:102940002843C4F89C002068A9F50161884209D099
:10295000D4F89C00002867D0204609B0BDE8F04FAD
:10296000FFF7CEBE606881688907F1D0016A426ACC
:10297000036A476A114003EA070202F03005D0F803
:102980002080D0F82490D0F820B0D0F824A0026A9B
:10299000089211F00F01426A0792466A026A069293
:1029A00003D00162204600F01BFB08EA09072DB1A5
:1029B000606829460562204600F01AFB70060BEAA3
:1029C0000A0607F4C0750ED5069810F040000AD02C
:1029D00060684023C16BC26B090C02F03F020362C6
:1029E000204600F001FBDDE9071000EA010706F4CC
:1029F000FC462DB1606829460562204600F0ECFADD
:102A000007F4F02036B161680E62D4F89C103143AF
:102A1000C4F89C1000289BD061680862D4F89C1010
:102A20000843C4F89C0093E709B0BDE8F08F0000AC
:102A300040B32DE9F04F83B04AF200080446C4F2D7
:102A400000080068404502D108F58070606094F885
:102A5000980028B9002084F89900204600F0CCF9AD
:102A60002068816921F01001816100F0CDFB0546ED
:102A700020688169090707D500F0C6FB401B0B28B9
:102A8000F6D312E001207047816941F001018161B4
:102A900000F0BAFB054600BF20688169C90711D163
:102AA00000F0B2FB401B0B28F6D30120D4F89C1099
:102AB0000843C4F89C00032084F89800012003B068
:102AC000BDE8F08F816941F002018161217C82695A
:102AD00022F04002012918BF40328261617C826984
:102AE00022F48042012908BF02F580428261A17C64
:102AF000826922F48052012918BF02F58052826156
:102B0000816921F44073D4E902120B438361836924
:102B100023F0A4038361036923F0100303619AB1D6
:102B2000012A0DD0022A09D08369032A43F08003C9
:102B30008361036943F01002026105D1202200E0A5
:102B4000042283691A438261D4E90572E369561E3F
:102B50006FF0FF02256A02EB0323B1F5407F43EAE1
:102B60004663A5F1010646EA030640F20003CFF6EC
:102B7000FF7303EB074746EA0701C16110D1D4E9AF
:102B80000B65D4E90917013F02EB06226FF00F062F
:102B90003A4306EB05173A4303EB01411143C16089
:102BA000236E2BB1616ED0F8C0201143C0F8C01065
:102BB000E16DCDE90113D9424AF6DC61C0F60001AE
:102BC00009D0D0F8C820A36E22F0070251F82330B4
:102BD0001A43C0F8C820D4F840A0BAF1000F09D0B9
:102BE000D0F8BC20636C22F0070251F823301A435E
:102BF000C0F8BC20D4F848C0BCF1000F0AD0D0F80F
:102C0000BC20E36C22F0700251F8233042EA031238
:102C1000C0F8BC20D4F850B0BBF1000F0AD0D0F8F7
:102C2000BC20636D22F4E06251F8231042EA0121D6
:102C3000C0F8BC10404504D161688A6822F00302E4
:102C40008A600021C4F89410C4F89C10012184F813
:102C5000981004F13409D0F884104FF6FC729143B7
:102C6000656C99E80C02009541EA8201C0F8841075
:102C7000D0F8841021F47F0141EA0341C0F88410A8
:102C80009918D0F888306FF38F0343EA8103C0F8B6
:102C90008830D0F8883023F4FE0343EA0943C0F8B3
:102CA000883001EB4903D0F8A0606FF38F0646EA45
:102CB0008306C0F8A060D0F8A06026F4FE0646EABD
:102CC0000A46C0F8A06005FB0A36D0F8B0306FF3B2
:102CD0008F0343EA8603C0F8B030D0F8B03023F455
:102CE000FE0343EA0C43C0F8B030E36CD0F8AC50BC
:102CF0006FF38F0503FB0C6645EA8605C0F8AC5000
:102D0000D4F8548008FB0B65D0F8F0606FF38F06A1
:102D100046EA8506C0F8F060D0F8F0E0A66D2EF423
:102D20007C1747EA0647C0F8F070F70007EB850705
:102D3000D0F8C0506FF38F052F43C0F8C070D0F8A3
:102D4000C070009D27F47C1705FB0AF5DDF804A090
:102D500003FB0C5347EA0A47C0F8C0704AF2000769
:102D6000D0F8C0E0C4F20007DDF808C007F54067FE
:102D700007EB820207EB81012EF07C5747EA0C67D4
:102D8000C0F8C07001EBC90008FB0B372167A16ECA
:102D900000EB8505606700EB8303E266C4E91E5320
:102DA0000AFB01F300EB87000CFB01F1C4F8800083
:102DB00000EBC600C4F8840000EB8300C4F8880070
:102DC00000EB81004DF2FC31C4F20001C4F8900028
:102DD000884201D9202069E6824208D2002000BF43
:102DE00042F8040BD4F890108A42F9D367E6002029
:102DF00003B0BDE8F08F0000B0B5B6B0044602A83D
:102E0000B8210025CDE93455CDE932553195FDF78E
:102E10005DFB4DF200412068C4F20001884240D0C1
:102E20004AF20041C4F20001884272D04AF2000125
:102E3000C4F20001884240F0BE80002003904FF4AD
:102E4000004002904FF080501D9002A801F02CFB32
:102E500008B1FDF71DFE40F2B80144F2E040C2F2B5
:102E60000041C5F602000A68002A02F101020A6068
:102E700008D1C16841F48071C160C16801F48071FA
:102E8000019101990168152441F008010160006871
:102E9000132500F0080001900198032031900921CA
:102EA00032E04FF4004002904FF080501D9002A895
:102EB000039501F0F9FA08B1FDF7EAFD40F2B80117
:102EC00044F2E040C2F20041C5F602000A68002A5E
:102ED00002F101020A6008D1C16841F48071C16049
:102EE000C16801F48071019101990168A02441F049
:102EF0000801016000689F2500F00800019005218D
:102F000001984FF44050319040F60040C5F6020061
:102F100038E0002003904FF4004002904FF08050C2
:102F20001D9002A801F0C0FA08B1FDF7B1FD40F212
:102F3000B80144F2E040C2F20041C5F602000A685E
:102F4000002A02F101020A6008D1C16841F48071CF
:102F5000C160C16801F48071019101990168162472
:102F600041F0020101600068142500F002000190A8
:102F700001986020319040F60040C5F6020009211A
:102F8000A0F50060359131A9022232920022CDE9EC
:102F9000332200F059F800210022284600F01CFAE4
:102FA000284600F009FA00210022204600F014FA19
:102FB000204600F001FA36B0B0BD0000000000006D
:102FC0007047000000000000704700000000000093
:102FD0007047000000000000704700000000000083
:102FE0007047000000000000704700000000000073
:102FF0007047000000000000704700000000000063
:103000007047000000000000704700000000000052
:103010007047000000000000704700000000000042
:103020007047000000000000704700000000000032
:103030008821C5F600010A68024208BF704708608F
:10304000FFF7F2BF000000002DE9F04F82B00C68DE
:10305000002C00F0C58000F1264242F2004502F14A
:10306000FF728305C5F602050A27A84243EA9222A9
:1030700008BF0927082A40F2040E38BF1746C5F6D4
:10308000000E002200974FF0030C0026002709E0F5
:1030900001370C6834FA07F306F1020602F1040264
:1030A00000F09E80012303FA07FA14EA0A09EFD020
:1030B000D1F804B00BF00304A4F10108B8F1010F3A
:1030C00011D8D0F808800CFA06F3CD6828EA03037B
:1030D000B5402B438360CBF30015436823EA0A0312
:1030E000BD402B434360032C1DD0C3680CFA06F58A
:1030F000AB438D68B540022C43EA0503C36012D18F
:103100006FF0030302F01C0503EA57030F24034486
:1031100004FA05FAD3F820800C6928EA0A08AC40C2
:1031200044EA08041C6203680CFA06F44D68A343E1
:1031300005F0030415F4403F04FA06F443EA0403DF
:103140000360A5D044F2F44440F2084AC5F60204F4
:10315000C5F6000A0F25236843F0020323602368A5
:1031600003F00203019327F00303019C02F00C0417
:1031700053F80A80A54028EA0508009D05FA04F4E2
:1031800044EA080443F80A404FF0B04ADAF80080F5
:103190004C6848EA0905E30258BF28EA0905A3027A
:1031A000CAF80050DEF8008048EA090558BF28EA4E
:1031B0000905A303CEF80050DEF8808048EA09052F
:1031C00058BF28EA0905E403CEF88050DEF87C30C9
:1031D00043EA090558BF23EA0905CEF87C5057E7B2
:1031E00002B0BDE8F08F0000426902EA010391439A
:1031F00041EA034181617047002A08BF09048161E7
:10320000704700000000000043F20810C2F20040C6
:10321000006870470000000040F27A0043F2081195
:10322000C2F20040C2F2004100780A68104408600F
:10323000704700000000000080B5032000F0FCF89B
:1032400001F0A6FF44F218414AF63473C5F60201B4
:10325000C0F600030A68C2F303229A5C096801F011
:103260000F0102F01F02595CD04040F20002C2F28E
:10327000000201F01F0120FA01F1116040F220016B
:10328000C2F2004108600F2000F00AF800281CBFBD
:10329000012080BD00F080F8002080BD000000000B
:1032A000B0B540F27A01C2F20041097801B3044698
:1032B00040F22000C2F200404FF47A72B2FBF1F10A
:1032C0000068B0FBF1F002F06BFD0F2C4FF0010530
:1032D0000CD858B94FF0FF3000222146002500F0ED
:1032E0007BF840F27C00C2F2000004602846B0BDCA
:1032F0000120B0BD0000000010B54EF6A05E417880
:10330000CEF2000E90F800C04EF8081CDEF8001057
:1033100021F00101CEF8001041684EF8041C017B39
:10332000C37A827A447B1B0643EA0171837B41EABC
:10333000C241C27B41EA8441447A41EA4341007A76
:1033400041EA024141EA042141EA400040EA0C001E
:10335000CEF8000010BD00004EF62450CEF2000062
:10336000BFF35F8F016821F48031016000210167A4
:1033700070470000000000004EF6245140F00100AC
:10338000CEF200010867086840F480300860BFF39F
:103390004F8FBFF36F8F704781B044F2F440C5F692
:1033A0000200016841F002010160006800F00200C3
:1033B0000090009801B07047002848BF704700F0A7
:1033C0001F01012202FA01F14EF200124009CEF271
:1033D000000242F82010704770B54EF60C5C4FF0BA
:1033E000FF36CEF2000C00F1604505F56445DCF8CF
:1033F0000030C3F3022E8EF00703042B28BF0423F2
:10340000BEF1030406FA03F321EA030100F00F03FF
:1034100038BF0024043B0028634406FA04F048BF88
:1034200003F10C05A14022EA0000084300012870C6
:1034300070BD0000000000004EF60C514FF6FF0377
:10344000CEF200010A681A4060F30A2242F080605E
:1034500040F0FD700860704701680122C0F8D82470
:10346000002280F8CC24886940F000608861486DB3
:1034700040F08052002042F003024A65704700008D
:103480007047000000000000026800205162704791
:10349000B0B5D0F800E0DEF82400D1B1DEF8283075
:1034A000B1F1010C00EB13430BD05FFA8CF10EF578
:1034B0008070002450F8045F01348C4203EB154304
:1034C000F8D30EEB8C0043EA0241C0F8041100204F
:1034D000B0BD40EA0240CEF828000020B0BD000098
:1034E000D0F8E00406F000B801EBC10200EB820264
:1034F000D0F8E004126A05F05FBF00000000000091
:1035000001EBC10200EB8202D0F8E004D2F86022A5
:1035100005F0AABF00000000D0F8E00405F0E8BF05
:1035200010B54AB2044601F00F00B2F1FF3F00EBC4
:10353000C00104EB810205DD02F51571002382F85C
:10354000553203E002F114010123537594F89424D9
:103550000870012A01D1022010BD012084F89404D2
:10356000206806F015FD002084F8940410BD0000CA
:10357000B0B50279044601F00F00904201D9012054
:10358000B0BD49B2B1F1FF3F09DD00EBC00100233E
:1035900004EB810202F5157182F8553207E000EB69
:1035A000C001012304EB810202F11401537594F868
:1035B000942400258D70012A087001D10220B0BD2D
:1035C000012084F89404206806F072FE284684F8EE
:1035D0009454B0BD0000000001F00F0101EBC101E7
:1035E00000EB8100D0F86802704700000000000086
:1035F00070B54CB2064601F00F00B4F1FF3F00EB8E
:10360000C00107DD06EB8104002504F5157184F87F
:10361000555206E006EB810C01240CF114018CF8E4
:1036200015404D7808708A60002D0B7118BF4883D3
:10363000022B01D10020487196F89404012801D191
:10364000022070BD012086F89404306806F0C0FBAB
:10365000002086F8940470BD80B501F00F0E0EEBCB
:10366000CE0100EB810C0021CCE998238379CCF8C2
:1036700068128CF855120CF51571012B8CF854E278
:1036800008BFCCF8702200681A4606F059FE0020E8
:1036900080BD000000000000B0B50446007901F0D4
:1036A0000F05854201D90120B0BD48B2B0F1FF3FFE
:1036B00009DD01EBC100002204EB800000F515716B
:1036C00080F8552207E005EBC500012204EB8000DD
:1036D00000F11401427594F8942401208870012AA5
:1036E0000D7001D10220B0BD84F89404206806F06A
:1036F00007FE2DB9A179206804F29C4206F0A8FDCE
:10370000002084F89404B0BD10B501F00F0C012422
:103710000CEBCC0100EB810E714601F814CF4FF099
:10372000000CC1F814C090F806C04C70CA60BCF11F
:10373000010F0B6108BFCEF830200068624606F02A
:10374000FFFD002010BD00002DE9F04F89B0056895
:103750008246284606F074FF10B109B0BDE8F08F2C
:10376000DAF8000006F09CFF0028F6D0D5F808082B
:10377000C0F30D20CAF8D404DAF8000006F090FF78
:10378000800705D5DAF80000416901F002014161C6
:10379000DAF8000005F5006606F082FFC006059520
:1037A0003ED5DAF80000816921F0100181612C6AB0
:1037B00004F00F05C4F34340062819D0022828D18D
:1037C00047F6F07014EA000823D005EBC5004FEA75
:1037D00018140AEB800705982246D7F8601206F005
:1037E00063FFD7F8600200EB1810C7F8600207E02B
:1037F0000AF29C410822059806F056FFC4F30A1409
:1038000005EBC5000AEB8000D0F868122144C0F82F
:103810006812DAF80000816941F010018161059DAC
:10382000DAF80000039606F03BFF000340F1038145
:10383000DAF8000006F010FF002800F0FC800646D1
:103840004FF4306800244FF0000B0AF29C400890BF
:1038500009E000BF0BF1010B760808F1200804F124
:10386000240400F0E880F007F4D05FFA8BF9DAF86E
:103870000000494606F00CFF0746C0075AD005EB8A
:10388000080001218160DAF8000008EB0001036CF8
:103890008A689AF80650012D18D1150729D4950683
:1038A00042D412F0280F059D44D1AC4643F20B05DB
:1038B000C4F65475AB42C0F0A18012F4004200F08F
:1038C0009D804FF400408860654633E043F20B056D
:1038D000C4F65475FF35AB4219D1100426D49006B6
:1038E000059D01D52020886050464946FFF708FE17
:1038F00020E043F20B00059DC4F65470834219D3B7
:1039000012F4004016D04FF40040886012E034B941
:10391000DAF8641219B90021089A06F099FC5046A9
:103920004946FFF7EDFD04E0202001E04FF40040A0
:103930008860059D380729D505EB080008218160BE
:1039400043F20B01DAF80000C4F65471056C4044F0
:103950008D42816805D311F400411CBF4FF4004132
:103960008160504600F0F0FB43F20B00C4F6547047
:103970008542059D0AD39AF80600012806D1DAF897
:1039800000000121089A06F063FC00BFF80607D486
:10399000B8070BD4B80624D4B8047FF55BAF27E092
:1039A00005EB080010218160B807F3D568690006AF
:1039B00004D50399486840F4806048600AEB04002D
:1039C00090F85712012906D1002180F8571250466D
:1039D000494600F0D5FA05EB080002218160B806DF
:1039E000DAD505EB080020218160B8047FF532AFFD
:1039F00005EB08004FF4005181602BE70AEB04024D
:103A0000002C6546D2F8743209696FF3DF41A3EBED
:103A10000101C2F868127FF467AFD2F864322BB1AB
:103A2000D2F860020844C2F860025DE70121089AFA
:103A300006F00EFC58E7DAF8000006F031FE40030D
:103A4000DDF80CB040F1E480DAF8000006F0FCFD8F
:103A5000002800F0DD800646002705F51060049080
:103A60000AF29C400290CDF818A004E0760807F115
:103A7000010700F0CD80F007F8D0F9B2DAF80000C5
:103A8000A846089106F0F0FD0446C007049D09D140
:103A9000200731D4E00635D4600639D4A0073DD4E0
:103AA00052E000BF07F00F00012305EB4712DBF8DF
:103AB000341003FA00F021EA0000CBF834009360E0
:103AC0009AF80600012811D107EBC7000AEB800025
:103AD000D0E907121144016247B9406A30B9DAF8F7
:103AE00000000121029A06F0B3FB00BF504608997E
:103AF000FFF7FAFC2007CDD505EB471008218160C0
:103B0000E006C9D505EB4710102181606006C5D5D8
:103B100005EB471040218160A00715D54046394686
:103B200006F05AFD07EBC7000AEB800010F8171FDC
:103B3000012905D1002101705046089900F01CFAB6
:103B400005EB471002218160200645467FF58EAFC8
:103B500007EBC7000AEB8000814659F8241FC846CE
:103B600058F8042F9142FFF481AF8346DAF8003011
:103B7000891A5BF81C2F914238BF0A4603EB4711A4
:103B800007930332D1F818399BB2B3EB920F27D3C6
:103B900001F5106A00F12005D8F80000D9F80010EE
:103BA00081421DD9081A0699DBF80040A0428A79A3
:103BB00038BF044629680092A3B2DDE9070206F087
:103BC0006BFE286820442860D8F800002044C8F81C
:103BD0000000E01CDAF8181089B2B1EB900FDBD2CC
:103BE000D9F80000D8F800108842DDF80CB0DDE903
:103BF000055A3FF63BAF079A07F00F00012101FA83
:103C000000F0D2F8341821EA0000C2F834082DE799
:103C1000DAF8000006F044FDB0F1FF3F1ADCDBF8F3
:103C2000040020F00100CBF804009AF8CC0401282D
:103C300007D100208AF8CC0400215046FFF720FC71
:103C400002E0504600F064FADAF80000416901F041
:103C500000414161DAF8000006F022FD00050CD5B4
:103C6000DBF80800C00702D0504600F095FADAF8F9
:103C70000000416901F400614161DAF8000006F0DA
:103C80000FFD000117D5DAF80000416901F000616D
:103C900041619AF8CC1419B1504600F07DFA0AE05F
:103CA00001218AF8CC14406DC0F38300CAF8D00417
:103CB0005046FFF7E5FBDAF8000006F0F1FCC0041F
:103CC0005CD5DBF80400102120F00100CBF80400E3
:103CD000DAF8000006F080FC9AF80400D8B105F587
:103CE00010614FF67F3200BF8A6001380B6823F401
:103CF00000130B60C1F80822D1F8003223F400133E
:103D0000C1F80032D1F8003243F00063C1F800324C
:103D100001F12001E8D1DBF81C0040F00110CBF8E4
:103D20001C009AF80F0040B1DBF8840040F00B0053
:103D3000CBF884000BF1440008E0DBF8140042F2F9
:103D40002B010843CBF814000BF1100001680AF2B4
:103D50009C4241F00B010160DBF8000020F4FE60A2
:103D6000CBF800009AF80610DAF8000006F070FAB6
:103D7000DAF80000416901F480514161DAF800008D
:103D800006F08EFC80041CD5DAF8000006F064F81A
:103D9000DAF8000006F044FC8AF80700DAF8004080
:103DA00001F06EF99AF807200146204606F0ECFC77
:103DB000504600F099F9DAF80000416901F4005129
:103DC0004161DAF8000006F06BFC000708D55046A8
:103DD00000F0A2F9DAF80000416901F00801416140
:103DE000DAF8000006F05CFC000628D50599886921
:103DF00020F0800088619AF8040002281FD3012473
:103E000040F27B2506E000BF9AF804000134243517
:103E1000844214D21AF805000128F5D104F00F00ED
:103E2000220600EBC0000AEB800000F1140158BF2D
:103E300000F51571DAF8000006F07EFBE4E7DAF829
:103E4000000006F02DFCC00230D59AF804000228CC
:103E500026D305980AF13C0500F5126401260127D6
:103E600006E000BF9AF8040001372034874217D2D9
:103E70002846216815F8242B012AF3D1B1F1FF3F20
:103E8000F0DC07F00F0100F8016C01EBC1010AEB57
:103E9000810000F11401DAF8000006F04DFBE1E7C3
:103EA000DAF80000416901F480114161DAF800009C
:103EB00006F0F6FB800236D59AF8041002292CD3BE
:103EC0000598013900F532600AF51F72012303E0FD
:103ED000013900F1200020D01746066812F8245B53
:103EE000012DF5D1B6F1FF3FF2DCDAF8D45406F437
:103EF000803605F00105AE42EAD1059E07F8013C87
:103F0000B76947F08007B76177693F06E0D4DBF80F
:103F1000040040F40070CBF80400DAF800004169B6
:103F200001F400114161DAF8000006F0B9FB40002D
:103F300008D55046FFF7D4FADAF80000416901F0DD
:103F400080414161DAF8000006F0AAFB40077FF5E6
:103F500004ACDAF800004468600702D55046FFF769
:103F6000DBFADAF8000041682143416009B0BDE89E
:103F7000F08F000000000000D0F8E00405F01CBB4A
:103F8000D0F8E00405F030BB002862D010B582B054
:103F9000044690F8950428B9002084F8940420463B
:103FA00000F06AF8032084F89504206806F048F9C8
:103FB000D4E9000194F810C0D4E90223CDF800C080
:103FC00005F05AFF00283ED12068002106F094FB3E
:103FD000C8BB207960B300EBC00000214FEA800E1F
:103FE0004FF0010C00230022E01824339E45027597
:103FF000C28502F1010280F815C00176C16101623B
:104000004162F1D100210022002300BFA018243218
:10401000964580F8543203F1010380F8551280F878
:104020005812C0F85C12C0F86012C0F86412EDD1EA
:10403000D4E9000194F810C0D4E90223CDF800C0FF
:1040400006F00AF838B1022084F89504012002B085
:1040500010BD0120704700206074012084F8950491
:10406000207B012802D12046FFF7F6F9206805F0F1
:10407000E3FF002002B010BD10B5B0B0044602A8A6
:10408000B821FCF723FA00212068C4F20401884219
:1040900001D030B010BD002003904FF4802002907A
:1040A0004FF48010239002A800F0FEF908B1FCF74D
:1040B000EFFC00F0B1F844F2D8400022C5F602004F
:1040C000016841F0007101600068002100F000709B
:1040D000019001984D20FFF77FF94D20FFF76CF913
:1040E00030B010BD0000000010B5C179044621B108
:1040F000022901D0FCF7CCFC0121D4F8E00405F042
:10410000FFFAD4F8E004BDE8104005F0ADBA0000B5
:10411000D0F8E00405F0D8BAD0F8E00405F0E0BA31
:1041200010B5044690F89404012801D1022010BD76
:10413000012084F894046174206806F011FB0020CB
:1041400084F8940410BD0000D0F8E02400F29C41F3
:10415000104605F0EDBA000010B5044690F894043E
:10416000012801D1022010BD2068012184F8941497
:10417000C168490606D5617B012903D1816B41F4F1
:104180008031816306F020FA206805F045FF0020A9
:1041900084F8940410BD000010B50446D0F8E00483
:1041A00005F01EFB2068D0F8001E41F00101C0F8A8
:1041B000001EE07A002808BF10BD4EF61050CEF267
:1041C0000000016841F00601016010BD0000000020
:1041D000B0B544F60C05C5F60205296849072968FB
:1041E00005D401F00701081A18BF0120B0BD21F065
:1041F000070108432860FFF707F8044655F8080C44
:10420000800407D4FFF700F8001BB0F57A7FF5D9DA
:104210000120B0BD0020B0BD44F60C00C5F6020080
:10422000016841F0807101607047000000000000EB
:1042300080B500F025FF44F220414AF63472C5F6FD
:104240000201C0F600020968C1F30211515C01F0DD
:104250001F01C84080BD000080B544F2384EC5F64D
:10426000020E5EF8103C5EF8101C5EF80C2CC1F3D8
:10427000053CDEF80410BCF1000F15D0C908D206C9
:1042800001EAE2716FF35F3100EE101A03F00301EF
:104290000229B8EE400A0CD071B95EF8381C8906C4
:1042A0000DD49FED351A18E000218160C0E900119E
:1042B00080BD9FED301A10E09FED2D1A0DE05EF8E5
:1042C000381C49F20002C0F2D032C1F3C10122FA17
:1042D00001F101EE101AB8EE411ADEF800109FED60
:1042E000273A6FF35F2102EE101ADEF80010C1F3D7
:1042F0004621B8EE422A00EE032A00EE10CAB7EEBD
:10430000003AB8EE400A81EE000A32EE031A02EEDD
:10431000101AB8EE422A20EE010A32EE031A80EE9D
:10432000011ABCEEC11A80ED001ADEF80010C1F3CC
:10433000064101EE101AB8EE411A31EE031A80EE72
:10434000011ABCEEC11A80ED011ADEF80010C1F3AB
:10435000066101EE101AB8EE411A31EE031A80EE32
:10436000010ABCEEC00A10EE101A816080BD00BFC9
:104370000024744A001BB74B0024744C0000003921
:1043800080B544F2404EC5F6020E5EF8183C5EF869
:10439000181C5EF8142CC1F3055CDEF80410BCF1A7
:1043A000000F15D0C908D20501EAE2716FF35F3141
:1043B00000EE101A03F003010229B8EE400A0CD0F7
:1043C00071B95EF8401C89060DD49FED351A18E0CE
:1043D00000218160C0E9001180BD9FED301A10E01E
:1043E0009FED2D1A0DE05EF8401C49F20002C0F26C
:1043F000D032C1F3C10122FA01F101EE101AB8EE78
:10440000411ADEF800109FED273A6FF35F2102EEAC
:10441000101ADEF80010C1F34621B8EE422A00EE71
:10442000032A00EE10CAB7EE003AB8EE400A81EE59
:10443000000A32EE031A02EE101AB8EE422A20EEFB
:10444000010A32EE031A80EE011ABCEEC11A80EDA9
:10445000001ADEF80010C1F3064101EE101AB8EEA2
:10446000411A31EE031A80EE011ABCEEC11A80ED3A
:10447000011ADEF80010C1F3066101EE101AB8EE61
:10448000411A31EE031A80EE010ABCEEC00A10EEAA
:10449000101A816080BD00BF0024744A001BB74B16
:1044A0000024744C000000392DE9F04381B004462B
:1044B000C07844F22C490007C5F6020901D4002552
:1044C0002DE0606E4FEA305003280CD80025DFE85D
:1044D00000F0020D1613D9F8000040F40030C9F8BE
:1044E000000055B913E001253DB910E004F10800C2
:1044F000022103F08DFB05464DB1A84611E004F101
:104500002800022103F014FC0546002DF5D1D9F84E
:104510002400616E20F440100843C9F824004FF0D5
:1045200000086078C00730D0A06D042807D8DFE805
:1045300000F00A131C030300FDB1A84625E0012585
:10454000002DFAD119E0D9F8000040F40030C9F884
:104550000000002DF1D110E004F10800002103F06B
:1045600057FB0546002DE8D107E004F128000021A3
:1045700003F0DEFB0546002DDFD1D9F82400A16D44
:1045800020F007000843C9F824006078400734D5BC
:10459000D4F8A4004FEA7050052807D8DFE800F0EF
:1045A0000A131C030303FDB1A84626E00125002DD4
:1045B000FAD119E0D9F8000040F40030C9F8000041
:1045C000002DF1D110E004F10800002103F020FBE0
:1045D0000546002DE8D107E004F12800002103F092
:1045E000A7FB0546002DDFD1D9F82C00D4F8A41084
:1045F00020F460000843C9F82C006078000734D527
:10460000D4F8A8004FEA3060052807D8DFE800F0AA
:104610000A131C030303FDB1A84626E00125002D63
:10462000FAD119E0D9F8000040F40030C9F80000D0
:10463000002DF1D110E004F10800002103F0E8FAA8
:104640000546002DE8D107E004F12800002103F021
:104650006FFB0546002DDFD1D9F82C00D4F8A81047
:1046600020F0E0600843C9F82C00E078800728D5E6
:10467000E06C4FEA3010032806D8DFE800F00209AA
:104680001202B5B1A8461CE00125002DFAD110E0B8
:10469000D9F8000040F40030C9F80000002DF1D135
:1046A00007E004F10800022103F0B2FA0546002DEC
:1046B000E8D1D9F82000E16C20F030000843C9F8B7
:1046C00020006078C00632D5E06D4FEA3030042813
:1046D00007D8DFE800F00A131C030300FDB1A84669
:1046E00025E00125002DFAD119E0D9F8000040F4A9
:1046F0000030C9F80000002DF1D110E004F10800ED
:10470000002103F085FA0546002DE8D107E004F109
:104710002800002103F00CFB0546002DDFD1D9F85D
:104720002400E16D20F4E0400843C9F824006078DB
:10473000800626D5206E4FEA3040052807D8DFE8EE
:1047400000F0030A100303039DB1A84619E00125F8
:10475000002DFAD10DE004F10800012103F058FA10
:1047600004E004F12800012103F0E2FA0546002DDF
:10477000EBD1D9F82400216E20F4E0200843C9F8D9
:1047800024006078400628D5D4F8AC004FEA307099
:10479000052807D8DFE800F0030A100303039DB1E2
:1047A000A8461AE00125002DFAD10DE004F1080019
:1047B000012103F02DFA04E004F12800012103F0A7
:1047C000B7FA0546002DEBD1D9F82C00D4F8AC107F
:1047D00020F0E0400843C9F82C006078000620D59E
:1047E000E06ED8B1B0F1005F12D0B0F1805F25D19A
:1047F000D9F8000040F40030C9F8000085B9D9F8B4
:104800002400E16E20F040500843C9F8240008E07D
:1048100004F10800012103F0FBF90546002DEED05C
:10482000A846E078C0072AD0A06C03280AD8DFE8A1
:1048300000F0020D1602D5B1A84620E00125002D9A
:10484000EED1DCE70125002DF6D110E0D9F800000B
:1048500040F40030C9F80000002DEDD107E004F16C
:104860000800022103F0D4F90546002DE4D1D9F85F
:104870002000A16C20F003000843C9F82000A078B4
:10488000400643D5D9F8D40340F48070C9F8D40366
:10489000FEF7BAFC064600BFD9F8D403C00505D41C
:1048A000FEF7B2FC801B6528F6D303256DBBD9F853
:1048B0004410D4F8B000414011F4407F11D0D9F831
:1048C0004410D9F8442042F48032C9F84420D9F881
:1048D000442021F4407122F48032C9F84420C9F800
:1048E0004410B0F5807F0FD1FEF78EFC064641F2F2
:1048F000893700BFD9F84400800705D4FEF784FC4F
:10490000801BB842F6D3032585B1A8462078C0079E
:1049100042D0A06F4FEAF000052823D8DFE800F06E
:1049200003262C0303037DB3A84635E04FF6CF736F
:10493000D4F8B00059F81C2CC0F2FF0300F4407109
:1049400022F47C5203EA1013B1F5407F08BF1A43EA
:104950006FF31F3049F81C2CD9F844100843C9F8EC
:104960004400D3E70125002DDED10DE004F108005D
:10497000012103F04DF904E004F12800012103F0C6
:10498000D7F90546002DCFD1D9F82800A16F20F026
:1049900038000843C9F828002078800724D5606FC4
:1049A000052807D8DFE800F0030A100303039DB1D0
:1049B000A84619E00125002DFAD10DE004F1080008
:1049C000012103F025F904E004F12800012103F09E
:1049D000AFF90546002DEBD1D9F82800616F20F022
:1049E00007000843C9F828002078400726D5D4F8E6
:1049F0009000052807D8DFE800F0030A100303033E
:104A00009DB1A8461AE00125002DFAD10DE004F170
:104A10000800012103F0FCF804E004F12800012162
:104A200003F086F90546002DEBD1D9F82C00D4F817
:104A3000901020F007000843C9F82C002078800669
:104A400028D5D4F88C004FEA3070052807D8DFE865
:104A500000F0030A100303039DB1A8461AE00125E4
:104A6000002DFAD10DE004F10800002103F0D0F888
:104A700004E004F12800022103F05AF90546002D54
:104A8000EBD1D9F82800D4F88C1020F0E04008438E
:104A9000C9F828002078400628D5D4F898004FEAB5
:104AA000B020052807D8DFE800F0030A100303034D
:104AB0009DB1A8461AE00125002DFAD10DE004F1C0
:104AC0000800002103F0A4F804E004F1280002210A
:104AD00003F02EF90546002DEBD1D9F82C00D4F8BF
:104AE000981020F4E0500843C9F82C002078000604
:104AF00028D5D4F89C004FEA7030052807D8DFE8A5
:104B000000F0030A100303039DB1A8461AE0012533
:104B1000002DFAD10DE004F10800002103F078F82F
:104B200004E004F12800022103F002F90546002DFB
:104B3000EBD1D9F82C00D4F89C1020F46040084345
:104B4000C9F82C002078000716D5D4F88000B0F5FD
:104B5000805F08D104F12800022103F0E9F8002861
:104B600018BF4FF00108D9F82800D4F8801020F4BD
:104B700040500843C9F828002078C00616D5D4F85C
:104B80009400B0F5807F08D104F12800022103F0E1
:104B9000CFF8002818BF4FF00108D9F82C00D4F83E
:104BA000941020F440700843C9F82C00A078000746
:104BB00022D5D4F8A000B0F5003F1AD0B0F5803F60
:104BC00011D0C8BB04F10800002103F021F805460C
:104BD0008DB9D9F82C00D4F8A01020F44030084347
:104BE000C9F82C0008E004F12800022103F0A0F825
:104BF0000546002DEDD0A846A078400729D5D4F869
:104C00008400B0F5401F21D0B0F5001F18D0B0F5DA
:104C1000801F40F0BA80D9F8000040F40030C9F895
:104C20000000ADB9D9F82800D4F8841020F4401061
:104C30000843C9F828000CE00125002DDBD1C8E7A6
:104C400004F12800012103F073F80546002DE9D096
:104C5000A846A078C00720D0206DB0F5803F10D0C6
:104C6000B8B9D9F8000040F40030C9F800009DB987
:104C7000D9F82000216D20F480300843C9F82000C5
:104C80000BE004F10800022102F0C2FF05461DB945
:104C9000EEE70125002DEBD0A846E078800608D588
:104CA00004F12800022103F043F8002818BF4FF058
:104CB0000108D4E900108A0376D5E26F6FF0010392
:104CC00003EB3223022B0AD34FEA32233BB1012BF1
:104CD00060D1D9F8003043F40033C9F80030002D1A
:104CE0005BD0CA0263D48A026BD44A0073D4CA0F61
:104CF00040F08180090200F18980C00707D004F1EB
:104D00000800002102F084FF002818BF0546207922
:104D1000800707D504F10800012102F079FF00287F
:104D200018BF05462079400707D504F10800022185
:104D300002F06EFF002818BF05462079000707D54E
:104D400004F12800002102F0F3FF002818BF0546F7
:104D50002079C00607D504F12800012102F0E8FF00
:104D6000002818BF05462079800607D504F12800E1
:104D7000022102F0DDFF002818BF0125002D18BF19
:104D80000125284601B0BDE8F0830125002D7FF400
:104D90005FAF47E70125002DA3D1D9F8283023F4D0
:104DA00040731A43C9F828204546CA029BD5D9F852
:104DB0002420236F22F000421A43C9F824208A02DB
:104DC00093D5D9F82420A36E22F080721A43C9F833
:104DD00024204A008BD559F81C2C22F4004249F8B3
:104DE0001C2CD4F8B42059F81C3C1A4349F81C2C4C
:104DF000CA0F3FF47FAFD9F82020636D22F04052F4
:104E00001A43C9F8202009027FF577AFD9F8281096
:104E1000D4F8882021F440011143C9F82810C007B4
:104E20007FF46DAF73E700002DE9F04381B00028F7
:104E300000F0F68042F200080446C5F200288946D8
:104E4000D8F8000000F00F0088420ED2D8F8000019
:104E500020F00F0040EA0900C8F80000D8F8000070
:104E600000F00F00484540F0DB80206844F218470E
:104E70004107C5F602070AD521693A6802F07002B7
:104E8000914204D93A6822F0700211433960010757
:104E90000AD561697A6802F07002914204D97A6891
:104EA00022F0700211437960C1060AD5A1697A68BF
:104EB00002F4E062914204D97A6822F4E06211437C
:104EC000796081060AD5E169BA6802F07002914200
:104ED00004D9BA6822F070021143B96081070AD57B
:104EE000E1683A6802F00F02914204D93A6822F070
:104EF0000F0211433960C00740F0808020688107AD
:104F00000AD5E1683A6802F00F02914204D23A6889
:104F100022F00F0211433960D8F8001001F00F01A0
:104F200049450DD9D8F8001021F00F0141EA0901D7
:104F3000C8F80010D8F8001001F00F0149456FD1F2
:104F400041070AD521693A6802F07002914204D201
:104F50003A6822F070021143396001070AD561698D
:104F60007A6802F07002914204D27A6822F07002EC
:104F700011437960C1060AD5A1697A6802F4E0623A
:104F8000914204D27A6822F4E0621143796080068B
:104F90000AD5E069B96801F07001884204D2B968A5
:104FA00021F070010843B86000F0F2F839684AF661
:104FB0003472C0F60002C1F30321515C3B6803F078
:104FC0000F0301F01F01D25C20FA01F102F01F0073
:104FD00040F20002C2F2000221FA00F0106040F23A
:104FE0007C0040F22002C2F20000C2F200420068DF
:104FF000116001B0BDE8F043FEF752B93968D4E959
:10500000010221F47061012841EA020139600BD0EC
:1050100003282BD002282ED157F8181C890307D457
:10502000012001B0BDE8F08357F8181CC905F7D579
:1050300057F8081C21F00701084347F8080CFEF751
:10504000E3F8064641F2883557F8080C616800F02D
:105050003800B0EBC10F3FF451AFFEF7D5F8801B1D
:10506000A842F1D9032001B0BDE8F08357F8181C1D
:105070008901D5D5DCE757F8181C4907D0D5D7E703
:1050800080B500F085F844F218414AF63473C5F64D
:105090000201C0F600030A68C2F303229A5C0968A1
:1050A00001F00F0102F01F02595C20FA02F201F038
:1050B0001F0040F20001C2F2000122FA00F0086075
:1050C00040F22001C2F200410A6080BD00000000F1
:1050D00080B500F05DF844F2184C4AF63473C5F61A
:1050E000020CC0F60003DCF80020C2F303229A5C35
:1050F000DCF8001001F00F0102F01F02595CD040F3
:1051000040F20002C2F2000201F01F0120FA01F198
:10511000116040F22002C2F200421060DCF804008C
:10512000C0F30210185C00F01F0021FA00F080BDEF
:1051300080B500F02DF844F2184C4AF63473C5F6E9
:10514000020CC0F60003DCF80020C2F303229A5CD4
:10515000DCF8001001F00F0102F01F02595CD04092
:1051600040F20002C2F2000201F01F0120FA01F138
:10517000116040F22002C2F200421060DCF804002C
:10518000C0F30220185C00F01F0021FA00F080BD7F
:1051900044F20041C5F602010869C0F3C2000328C9
:1051A0000FD002282CD080BB0868800649F200008E
:1051B000C0F2D03058BF70470968C1F3C101C84080
:1051C00070478A6A886AC0F3051CC86ABCF1000F80
:1051D0004B6B1FD000F0010002F003024042022A94
:1051E00000EAD3006FF35F3000EE100AB8EE400A19
:1051F00012D0A2B90868800614D49FED261A1EE0CA
:1052000043F20060C0F26E10704740F60010C0F22A
:105210003D007047002070479FED1D1A0FE09FED85
:105220001B1A0CE0086849F20002C0F2D032C0F349
:10523000C10022FA00F001EE100AB8EE411A086B24
:105240009FED153A6FF35F2002EE100A086BC0F372
:105250004620B8EE422A013000EE032A00EE10CAC2
:10526000B7EE003AB8EE400A81EE000A32EE031AB9
:1052700020EE010A01EE100AB8EE411A80EE010A92
:10528000BCEEC00A10EE100A704700BF0024744A3A
:10529000001BB74B0024744C0000003900000000D4
:1052A0002DE9F04381B0002800F06B818046007842
:1052B00044F20046C007C5F6020649D0306900F046
:1052C0003801B06A102905D018290BD100F003006D
:1052D000022807D13068800336D5D8F8040098BB7F
:1052E000012726E0D8F804502DB1B5F5A02F0AD03B
:1052F000B5F5803F0BD0306820F4803030603068E6
:1053000020F4802006E0306840F48020306030686F
:1053100040F480303060FDF777FF002D054610D057
:105320003068800310D4FDF76FFF401B6428F7D965
:105330000327002060B965E1FDF766FF401B642884
:10534000F6D830688003F7D40120002800F05A8195
:1053500098F8000080075ED5306910F03801B06A17
:1053600019D0182908BF5FEA807014D0D8F80C0053
:105370003168C0B321F0190108433060FDF744FFE4
:10538000054600BF3068400723D4FDF73DFF401BB2
:105390000228F7D91AE03068400704D5D8F80C0085
:1053A000002800F085813068D8F80C1020F0190032
:1053B00008433060FDF728FF054600BF306840070E
:1053C00007D4FDF721FF401B0228F7D9032700244B
:1053D0001EE07068D8F8101020F0FE40012440EA6A
:1053E0000160706014E021F001003060FDF70CFFF7
:1053F00005464FF0010900BF306810F0040089EA4B
:10540000900405D0FDF700FF401B0228F4D90327C4
:10541000002C00F0F78098F80000C0064CD53069E9
:1054200000F03801B06A082905D0182914D100F01D
:105430000300012810D13068C00503D5D8F81C003E
:10544000802834D1F068D8F8201020F07C50012456
:1054500040EA0160F0602CE0D8F81C0000283068B9
:1054600010D040F080003060FDF7CEFE054600BF52
:105470003068C005E6D4FDF7C7FE401B0228F7D907
:10548000032715E020F080003060FDF7BDFE0546E3
:105490004FF00109306810F4807089EA102408D0B8
:1054A000FDF7B2FE401B0228F4D9032701E00127D3
:1054B0000024002C00F0A68098F80000000762D4B9
:1054C00098F80000800673D498F80000400700F1B7
:1054D0008580D8F82440002C51D0306900F0380085
:1054E000182840F0C580012CB16A306B49D001F01A
:1054F0000302D8F828309A4243D1C1F30511D8F8F5
:105500002C2091423DD10146D8F830206FF35F2125
:10551000013A914235D1C0F34622D8F8341001390E
:105520008A422ED1C0F30642D8F8381001398A4297
:1055300027D1C0F30660D8F83C100139884220D149
:10554000706BD8F84810C0F3CC00814217D0F06AD5
:1055500020F00100F062FDF757FE0546FDF754FE0E
:10556000A842FBD0706B4FF6F871D8F848208843FA
:1055700040EAC2007063F06A40F00100F062002768
:1055800040E001273EE0D8F814000028706F3DD0BD
:1055900040F001007067FDF737FE0546706F800729
:1055A0003FF58EAFFDF730FE401B0228F6D928E00C
:1055B000D8F818000028306849D040F48050306096
:1055C000FDF722FE054600BF306880043FF57CAF42
:1055D000FDF71AFE401B0228F6D912E0D6F80004A7
:1055E00040F48070C6F80004FDF70EFE054600BFCB
:1055F000D6F80004C0051BD4FDF706FE401B642846
:10560000F6D90327F8B201B0BDE8F08320F001001D
:105610007067FDF7F9FD0546032700BF706F80072F
:105620007FF54EAFFDF7F0FD401B0228F6D9E9E704
:10563000D8F808501DB1052D3CD0012D3ED0306F5B
:1056400020F001003067306F20F0040039E020F4D2
:1056500080503060FDF7D8FD054603273068800490
:105660007FF532AFFDF7D0FD401B0228F6D9C9E720
:10567000306820F080703060FDF7C6FD022C0546D2
:105680004FF003070AD100BF3068800138D5FDF71D
:10569000BBFD401B0228F7D9B4E700BF306880018A
:1056A0007FF56DAFFDF7B0FD401B0228F6D9A9E7E5
:1056B00001278CE6306F40F004003067306F40F017
:1056C00001003067FDF7A0FD002D054641F288344A
:1056D0004FF0030710D000BF306F80073FF5F9AEE1
:1056E000FDF792FD401BA042F6D98BE7FDF78CFD3C
:1056F000401BA0423FF686AF306F8007F6D4E8E645
:1057000008F12807B06A40F2F33188438ECF08438E
:10571000591E40EA02104FF47E426FF35F21B062DF
:1057200002EB47204FF4FE0280B2D8F83C30084428
:10573000D8F8381002EB01414FF0FE4201F4FE01AF
:1057400002EB0362084402F0FE4108443063F06A51
:105750004FF6F87120F00100F062706BD8F8482025
:10576000884340EAC2007063F06AD8F8401020F025
:105770000C000843F062F06AD8F8441020F00200F0
:105780000843F062F06A40F48030F062F06A40F45E
:105790000030F062F06A40F48020F062F06A40F07D
:1057A0000100F062306840F080703060FDF72CFD41
:1057B00004460327306880013FF5E1AEFDF724FD84
:1057C000001B0228F6D91DE770470000000000000A
:1057D0002DE9F0410446066830697169B76894F8AC
:1057E00081800A050BD510F0080208D0B06940F49A
:1057F0000060B0612046BDE8F04100F095BA01EAD2
:10580000000505F06400042807D1616F2046884731
:10581000216F20468847012000E0002005F0450167
:10582000012903D1216F20468847012005F0260178
:10583000022903D1616F20468847012008B1BDE8E5
:10584000F081280753D415F4587FF8D0680600F18A
:105850009F80A80500F1AA80E80500F1B580A806A0
:105860000AD52068D4F8841041F08001C4F884106F
:10587000816941F020018161D4F884000028DED0E4
:10588000206807F4404240F26B33B2F5404F0168A4
:1058900021F001010160016921EA0301016140F089
:1058A000A280816847F6297521F440418160E06F4C
:1058B000C0F6000548B10565FBF796FB28B1D4F8A2
:1058C000840040F04000C4F88400A06F0028B6D0E7
:1058D0000565FBF789FB002808BFBDE8F081D4F817
:1058E000840040F04000C4F88400BDE8F0812068E6
:1058F000816941F008018161816941F01001816194
:10590000816941F400618161016921F0080101614F
:10591000806810F4404F24D0204602F0A1FA012004
:1059200084F88100D4F8840000285FD1B8F1030F17
:1059300061D0B8F1040F63D0B8F1050F7FF47FAFE9
:105940002046BDE8F04100F0F7B900BF2068616E65
:10595000006B41F8040B6166B4F86A000138A4F8E2
:105960006A00B4F86A000028D6D0E0681028EDD2AA
:10597000082804D3308E616E21F8020BEBE7206813
:1059800090F83000616E0870606E01306066E3E789
:105990002068D4F8841041F00401C4F884108169AF
:1059A00041F040018161A8057FF556AF2068D4F829
:1059B000841041F00101C4F88410816941F4007140
:1059C0008161E8057FF54BAF2068D4F8841041F081
:1059D0000801C4F88410816941F480718161A806CE
:1059E0003FF53FAF48E7012084F881002046BDE83D
:1059F000F041FFF7E9BE2046BDE8F04100F098B95C
:105A00002046BDE8F04100F08BB900000000000026
:105A1000002863D02DE9F04743F6000304460068F0
:105A2000C4F2000343F2000E43F6004C9842C4F265
:105A3000010EC4F2000C4FF00001A16204D06045D9
:105A400018BF704540F0B280E16B0125E2689842D2
:105A500002F1080205EB51114FEAD20202FB01F1FB
:105A600018BF704540F09080102900F2A38094F890
:105A7000810028B9002084F88000204600F0A0F8BA
:105A8000022084F881002068D4F818E00168BEF193
:105A9000806F21F00101016082680FD163682BB132
:105AA000B3F5800F0AD1A16B21B13BB9A16BB1F164
:105AB000805F03D1016841F480510160D4F8049003
:105AC00002F4F8125FEA492C0AD5E168072907D3E6
:105AD0000168256D21F48071294304E0012070479D
